:100000000C9482000C94AA000C94AA000C94AA00F0
:100010000C94AA000C94AA000C94AA000C94AA00B8
:100020000C94AA000C94AA000C94AA000C946911D8
:100030000C94AA000C94AA000C94AA000C94AA0098
:100040000C9400100C94AA000C94AA000C94AA0022
:100050000C94AA000C94AA000C94AA000C94AA0078
:100060000C944A100C94AA00AB0055007C0084004C
:100070004B00B5001B00E5000017E8000047B80082
:100080000077AB0000ABAB000055AB000022DD00F9
:100090000E00F2003E00C20071008F00A1005F0060
:1000A000D0002F00F9070000000000002400270006
:1000B0002A0000000000250028002B00000000009E
:1000C000230026002900040404040404040402029A
:1000D00002020202030303030303010204081020C7
:1000E00040800102040810200102040810200000D2
:1000F00000080002010000030407000000000000E7
:100100000000C71111241FBECFEFD8E0DEBFCDBF66
:1001100011E0A0E0B1E0E2EAF6E302C005900D9242
:10012000A037B107D9F723E0A0E7B1E001C01D92E5
:10013000AB3CB207E1F710E0C2E8D0E004C0219781
:10014000FE010E94231BC138D107C9F70E942D125E
:100150000C944F1B0C94000008950895DC01E2EE0E
:10016000F2E08C91808311968C9111978183129685
:100170008C9112978283339683E0E639F80789F7EA
:100180000895982F20919D0381E0213208F043C00B
:1001900080919C038111FCCF8091D50232E0309395
:1001A0009C0390939B039FEF9093B3021092B20233
:1001B0002093B102A5EBB2E0E1E9F2E090E029136F
:1001C00031C01092900290919002880F892B8093F9
:1001D000900280919A03813049F510929A038091A0
:1001E00090028093BB008091BC0083FDF8CF85EC2A
:1001F0008093BC0080919C038230E1F38091B30234
:100200008F3FB1F08091B3028032A1F08091B302B0
:10021000803391F084E010929E0310929D0310921F
:10022000B40208953D9131939F5FC9CF85EEE0CF31
:1002300080E0F1CF82E0EFCF83E0EDCF382FE2EE28
:10024000F2E02081239F020E20E0211D20832181E6
:10025000239F020E20E0211D21832281239F020E75
:1002600020E0211D22831124339683E0E639F8072C
:1002700041F7089580E991E00895833081F028F4F2
:10028000813099F08230A9F008958730A9F0883044
:10029000C9F08430B1F4809180008F7D03C08091DB
:1002A00080008F7780938000089584B58F7784BD18
:1002B000089584B58F7DFBCF8091B0008F778093B8
:1002C000B00008958091B0008F7DF9CFCF93DF9378
:1002D000282F30E0F901E251FF4F8491F901E652F5
:1002E000FF4FD491F901EA53FF4FC491CC23A1F001
:1002F00081110E943D01EC2FF0E0EE0FFF1FE4544E
:10030000FF4FA591B491EC91ED2381E090E009F4C9
:1003100080E0DF91CF91089580E090E0FACF1F93C5
:10032000CF93DF93282F30E0F901E251FF4F849102
:10033000F901E652FF4FD491F901EA53FF4FC491FE
:10034000CC23A9F0162F81110E943D01EC2FF0E083
:10035000EE0FFF1FEE54FF4FA591B4918FB7F894A5
:10036000EC91111108C0D095DE23DC938FBFDF9193
:10037000CF911F910895DE2BF8CFCF93DF9390E0BC
:10038000FC01E652FF4F24918A539F4FFC01849158
:100390008823D1F090E0880F991FFC01E855FF4FAA
:1003A000A591B491FC01EE54FF4FC591D4916230F8
:1003B00071F49FB7F8943C91822F809583238C939E
:1003C000E8812E2B28839FBFDF91CF9108958FB7AF
:1003D000F894EC912E2B2C938FBFF6CF3FB7F89467
:1003E0008091040290910502A0910602B09107024B
:1003F00026B5A89B05C02F3F19F00196A11DB11D80
:100400003FBFBA2FA92F982F8827BC01CD01620FBB
:10041000711D811D911D42E0660F771F881F991F76
:100420004A95D1F708958F929F92AF92BF92CF9243
:10043000DF92EF92FF924B015C010E94EE016B0193
:100440007C010E94EE016C197D098E099F09683EAE
:10045000734081059105A8F321E0821A9108A10853
:10046000B10888EEC80E83E0D81EE11CF11C81148F
:100470009104A104B10429F7FF90EF90DF90CF9091
:10048000BF90AF909F908F9008952FB7F894609190
:1004900000027091010280910202909103022FBF2D
:1004A00008954F925F926F927F929F92AF92BF9208
:1004B000CF92DF92EF92FF920F931F93CF93DF9330
:1004C00000D01F92CDB7DEB7F090BB038091BE0382
:1004D0009091BF03A091C003B091C103892B8A2BD7
:1004E0008B2BD9F00E94EE010091DE021091DF0209
:1004F0002091E0023091E102601B710B820B930BA3
:100500000091BE031091BF032091C0033091C1033D
:100510006017710782079307C8F20E94EE0160938B
:10052000DE027093DF028093E0029093E102E0919B
:10053000C603F091C703309759F04091C203509120
:10054000C3036091C4037091C5038F2D0995F82EE4
:100550000091DC021091DD024F2C512C712C612C8A
:100560000115110509F45EC0D8011C96EC901C978A
:100570008091BC039091BD038436910510F41C96C4
:100580001C92D801ED91FC91A280B38019821A824D
:100590001B82FF2089F1F8013696D12CC12C2191C4
:1005A000222319F19280992001F130E050E040E0DF
:1005B0002F5F3F4F4F4F5F4FC301B2010E94BD1AE3
:1005C0009B01AC01892D90E0B0E0A0E0BC01CD0121
:1005D0006F5F7F4F8F4F9F4F0E94BD1AA1E0B0E029
:1005E000AC0FBD1FAC0DBD1D8C93BFEFCB1ADB0A4A
:1005F00083E0C816D10499F6D8011D964D915C91FF
:100600001E9712966D917C919E012F5F3F4FC801FE
:10061000F5010995D8011C96EC921C9714960D9142
:100620001C919ECF8091DA029091DB028C010F5FCA
:100630001F4F1093DB020093DA0249978CF10E945E
:1006400045029B01AC0188EE93E0089FB001099F31
:10065000700D189F700D1124072E000C880B990B3C
:10066000C090D602D090D702E090D802F090D90284
:100670002C193D094E095F090E94011B3093BD03EF
:100680002093BC031092DB021092DA020E94450212
:100690006093D6027093D7028093D8029093D902C8
:1006A0000F900F900F90DF91CF911F910F91FF90BE
:1006B000EF90DF90CF90BF90AF909F907F906F9022
:1006C0005F904F90089585ED8093BC008091BC00B1
:1006D00084FDFCCF10929C0308952091DC01260F2D
:1006E0003327331F21323105ECF420919C03FC01A8
:1006F00090E080E0243069F082E00895A091DC0170
:100700002191AC0144545E4FA40FB52FB11D2C9321
:100710000196861798F38091DC01680F6093DC01E5
:1007200080E0089581E008950895E091A00380910C
:100730009F03E81730F4F0E0E859FD4F808190E026
:1007400008958FEF9FEF08959091A00380919F03EC
:100750002FEF3FEF981748F4E92FF0E0E859FD4FED
:10076000208130E09F5F9093A003C901089580919C
:100770009F039091A003891B990B0895CF92DF925C
:10078000EF92FF920F931F93CF93DF937C01CB01E6
:100790008A012091B402222389F0EB016B01C40E7F
:1007A000D51ECC15DD0569F06991D701ED91FC915D
:1007B0000190F081E02DC7010995F3CF642F0E94CD
:1007C0006D03C801DF91CF911F910F91FF90EF90C2
:1007D000DF90CF900895CF93DF931F92CDB7DEB710
:1007E00069832091B4022223F9F020919D032032E5
:1007F00058F021E030E0FC013383228390E080E078
:100800000F90DF91CF91089580919E03E82FF0E043
:10081000EB54FD4F998190838F5F80939E0380936B
:100820009D0381E090E0ECCF61E0CE0101960E9453
:100830006D03F7CF90E080E008951F93DC01FB018A
:100840007C9111964C91119712961C91972F990FAC
:10085000990F990F35E5292F239F020E20E0211DC6
:100860001124822F672F6074572F507277FD6FC04D
:1008700061115BC0511105C0922F9095892F90E0B6
:1008800004C025E5280F90E08BEA4F3F09F424C00F
:10089000442309F47DC0882331F0382F349F030EA0
:1008A00030E0311D832F222321F0249F020E20E00F
:1008B000211D992331F0392F349F030E30E0311D73
:1008C000932F1124342F3095339F030E30E0311DC8
:1008D0001124830F230F930F1F3F09F421C030E031
:1008E000112321F0119F312D09F03F5F332309F4CB
:1008F00053C0882331F0482F439F040E40E0411D30
:10090000842F222321F0239F020E20E0211D992312
:1009100031F0492F439F040E40E0411D942F1124D4
:100920008083218392831F91089551110BC0392F29
:100930002AEA329F030E30E0311D11249BEA931BFB
:10094000280F9CCF90E02095982F80E09ECF6111DA
:1009500012C051110CC0392F2AEA329F030E30E029
:10096000311D11242BEA231B95E5930FEECF922F17
:10097000909520E08ACF511106C025E5280F9BEA0B
:10098000981B822FF6CF2AEA280F90E0932FF8CFFA
:100990009FEF2FEF8FEFA0CF90E020E080E0C0CF5F
:1009A000DF92EF92FF920F931F93CF93DF93CDB718
:1009B000DEB7E0970FB6F894DEBF0FBECDBF88E676
:1009C00090E0DE0111969E012F5C3F4F8D01FC01EE
:1009D00045915591659174916C9311965C93119723
:1009E00012964C93129704961396A217B30779F7B1
:1009F0000E9445029B01AC0160E070ED83E490E051
:100A00000E94BD1A892F96FD8095E82FEF738F7095
:100A100096FD8F5FE695E695E695E670F0E0EB5D76
:100A2000FE4F2181289F202D812D112422952F708A
:100A30008295807F282B8081280F97FD2195205853
:100A40003FEB239F020E20E0211D112480E4E82EBD
:100A5000E20EE2EEF2E070E0F12C509152022E2D07
:100A6000251B622F6F0D570F252F22952F705F705A
:100A7000A22FAA0FA20FA00FB12FB11D3C9111966A
:100A80009C91119712968C911297552309F431C0BD
:100A900013962F3009F4D8015295507F452F409579
:100AA000349F030E30E0311D2C91259F020E20E073
:100AB000211D320F292F249F020E20E0211DD22E4E
:100AC00011969C911197292F259F020E20E0211D40
:100AD000922F9D0D282F249F020E20E0211D12969B
:100AE0008C91482F459F040E40E0411D842F820FBA
:100AF00011246F3FD9F0662309F430C06F5F3323B0
:100B000021F0369F030E30E0311D992331F0292F5B
:100B1000269F020E20E0211D922F882331F0482FBE
:100B2000469F040E40E0411D842F112430839183A1
:100B300082838AE0F80E7E5F3396783709F08DCF96
:100B4000E0960FB6F894DEBF0FBECDBFDF91CF9118
:100B50001F910F91FF90EF90DF90089580E090E05B
:100B600030E0E4CF0F931F93CF93DF9300D01F9219
:100B7000CDB7DEB78091520289838FEF8B8380EFF0
:100B80008A8302EE12E0B801CE0101960E941D0494
:100B90008981895F89830D5F1F4F83E006391807BC
:100BA00091F70F900F900F90DF91CF911F910F91C0
:100BB0000895BC019C0183E0369527958A95E1F75D
:100BC000377076FF06C08FEF97E0AC01421B530BE6
:100BD0009A01E32FEE0FEE0FF0E0EA5FFE4F408147
:100BE000518126958281FA01289FE00DF11D112483
:100BF000CF0177FF03C091958195910908954091A8
:100C000000015091010125E038E0429FC001439F5F
:100C1000900D529F900D1124875E994C9093010185
:100C200080930001890F08959C01AB01869FB0015C
:100C3000359FC001E0E0349F700D811D9E1F259FF0
:100C4000700D811D9E1F1124620F731F8E1F9E1F2A
:100C50000895BF92CF92DF92EF92FF920F931F936E
:100C6000CF93DF9300D000D000D0CDB7DEB78BEEAE
:100C70000E941E01C12C67E0D62EE12CF12C10E061
:100C800008ECBB24BA9419830A83BB82BE016C5F53
:100C90007F4FCE0101960E941D040E9445029B01D8
:100CA000AC01A8E1B1E00E943F1B9B01AC01C70170
:100CB000B6010E94BD1A0E94D9056CE370E09058FD
:100CC0000E9414064C819C01220F331FF901E80F8A
:100CD000F91FEE51FD4F5081541708F440834D81A8
:100CE000F901E80FF91FEE51FD4F5181541708F437
:100CF00041834E81280F391FF901EE51FD4F82814A
:100D0000841708F44283105E8FEFD81AE80AF80AB5
:100D1000C1148FE0D806E104F10409F0B4CF26969F
:100D20000FB6F894DEBF0FBECDBFDF91CF911F91FC
:100D30000F91FF90EF90DF90CF90BF90089520919A
:100D4000B6013091B7018091B8018823D1F0C90173
:100D5000880F991F820F931F969587959695879573
:100D60009093390280933802809138029091390231
:100D7000029730F482E090E0909339028093380239
:100D800008953093390220933802EECF1F93CF930A
:100D9000DF9300D01F92CDB7DEB7182F19821A82C9
:100DA0001B82CE0101960E94AE0040912B02415061
:100DB000550B80E090E4282F30E02417350764F4C9
:100DC000F901EE0FFF1FE20FF31FEE51FD4F1082EE
:100DD000918392838F5FEFCF1092E20280E4809341
:100DE000E3028093E40220912C022150330B80E037
:100DF0006BE370E090E4482F50E0421753077CF417
:100E0000FB01E41BF50BAF01EE0FFF1FE40FF51F15
:100E1000EE51FD4F1082918392838F5FECCF109241
:100E2000930380E48093940380939503112301F14D
:100E300090912902E6E3F3E080E0981310C09091CE
:100E40002A02ECE3F3E080E0981791F0108211831E
:100E500012821382148315828F5F3696F5CF138327
:100E6000148215821083118212828F5F3697E5CF2C
:100E70000F900F900F90DF91CF911F910895E09107
:100E80002F02ED3070F5F0E0E85BF84F0C94231B77
:100E9000550767078907710771078D07AD07670752
:100EA0008907670789075507550710922A0210928C
:100EB00029021092BB011092BA0197E090932C0284
:100EC00090932B021092B9011092B8010AC01092AF
:100ED0002D0229E130E03093B7012093B601109242
:100EE000B90180932F028D3008F058C0E82FF0E050
:100EF000E458F84F0C94231BB907CF07CF07EC0732
:100F0000EC07CE07CE07EE07EE07220822083608C8
:100F100036089BE390932D02DCCF40912D0293E0A5
:100F2000499FA0011124465F5F4F2091B9012F5FB7
:100F30002093B901269530E02417350738F022E0D8
:100F400030E03093B7012093B601BECF421B530B64
:100F50005093B7014093B601B7CF90912D022BE388
:100F600030E0291B3109A901440F551F420F531FBF
:100F7000DACF1092BB011092BA0187E080932C0265
:100F800080932B02109225021092240210922602C6
:100F900088E290E09093390280933802089580E3CC
:100FA0000E94C6060E94510286E990E090933902A1
:100FB0008093380280E29EE4909337028093360259
:100FC00010922E0280912F02813021F08BE38093CA
:100FD0002D02089580E0FBCF0C949F0687E080935C
:100FE00028029091BA01911107C080912B0287309D
:100FF00018F48F5F80932B028091BB01811107C091
:1010000020912C02273018F42F5F20932C0229EE18
:1010100030E03093390220933802992319F091502F
:101020009093BA01882319F081508093BB018AEF15
:1010300090E090933102809330029093330280933A
:101040003202089580E30E94C6060E94510286E99A
:1010500090E090933902809338028CE49DE1909364
:1010600037028093360210922E02089584EF91E0A9
:101070009093310280933002909333028093320236
:101080001092270285E590E085CF25E09FEF6C3335
:1010900080F4462F50E0FA01EE0FFF1FE40FF51F1A
:1010A000EE51FD4F9083918312829695681B2150DB
:1010B00071F70895FB01208131812115310561F01F
:1010C00090E02817390758F0281B390B318320830B
:1010D00080819181892B09F040E0842F089511824D
:1010E0001082F6CFEF92FF920F93CF93DF937B01A5
:1010F000EA019881911113C0822F0E946601F701C5
:101100009081891721F098E098838083811100E015
:10111000802FDF91CF910F91FF90EF900895981756
:1011200018F0981B9883F3CF1882F1CF0F931F9379
:10113000CF93DF932091B5012F5F322F377030931B
:10114000B50120FF2BC020E831FD2064347009F088
:101150002062205FFC01EC01239600E011E0648531
:10116000662329F070E0C8010E94ED1A6F5F618765
:10117000322F369F030E30E0311D1124311110C083
:101180001682662311F0615061873196EC17FD07D6
:1011900031F7DF91CF911F910F91089520E0D4CFC7
:1011A00031503683EECF4F925F926F927F928F9243
:1011B0009F92AF92CF92DF92EF92FF920F931F9385
:1011C000CF93DF933C01EB010E94EE01F3012785F1
:1011D0003089621B730B6A307105B0F3F894E881B3
:1011E000F9810BB100681BB11F771BB9CA848F81CD
:1011F0004C2D481B842F4F839F844A805B80FD8445
:10120000EC84DE84F394E394D3949E8138858984BE
:10121000AB844181D20120E0622F722F718144277B
:1012200088947111780F08F47FEF81958894F0FC11
:10123000470F47958894F1FC470F47958894F2FC37
:10124000470F47958894F3FC470F47958894F4FC23
:10125000470F47958894F5FC470F47958894F6FC0F
:10126000470F47958894F7FC470F47958894272F99
:10127000F110242F8C0D422F002C0BB900C000C0A0
:1012800047FF1BB970812227889400C0002C1BB92E
:101290007111790F00C0002C0BB900C000C046FFCF
:1012A0001BB908F47FEF9195889400C0002C1BB9FE
:1012B000E0FC270F00C0002C0BB900C000C045FFA8
:1012C0001BB927958894E1FC270F00C0002C1BB99F
:1012D0002795889400C0002C0BB900C000C044FFC3
:1012E0001BB9E2FC270F2795889400C0002C1BB97E
:1012F000E3FC270F00C0002C0BB900C000C043FF67
:101300001BB927958894E4FC270F00C0002C1BB95B
:101310002795889400C0002C0BB900C000C042FF84
:101320001BB9E5FC270F2795889400C0002C1BB93A
:10133000E6FC270F00C0002C0BB900C000C041FF25
:101340001BB927958894E7FC270F00C0002C1BB918
:101350002795889400C0002C0BB900C000C040FF46
:101360001BB9472FE110422F980D00C0002C1BB96C
:1013700000C000C0002C0BB900C000C047FF1BB963
:1013800072812227889400C0002C1BB97111730F41
:1013900000C0002C0BB900C000C046FF1BB908F408
:1013A0007FEFE90DF11D00C0002C1BB9D0FC270F09
:1013B00000C0002C0BB900C000C045FF1BB9279529
:1013C0008894D1FC270F00C0002C1BB92795889466
:1013D00000C0002C0BB900C000C044FF1BB9D2FCF8
:1013E000270F2795889400C0002C1BB9D3FC270F2A
:1013F00000C0002C0BB900C000C043FF1BB92795EB
:101400008894D4FC270F00C0002C1BB92795889422
:1014100000C0002C0BB900C000C042FF1BB9D5FCB6
:10142000270F2795889400C0002C1BB9D6FC270FE6
:1014300000C0002C0BB900C000C041FF1BB92795AC
:101440008894D7FC270F00C0002C1BB927958894DF
:1014500000C0002C0BB900C000C040FF1BB9472FD3
:10146000D110422F319500C0002C1BB93A0D00C09D
:1014700000C00BB900C000C047FF1BB97181222713
:10148000889400C0002C1BB97111780F00C0002C8B
:101490000BB900C000C046FF1BB908F47FEF81956F
:1014A000889400C0002C1BB9F0FC270F00C0002C52
:1014B0000BB900C000C045FF1BB927958894F1FC0B
:1014C000270F00C0002C1BB92795889400C0002C62
:1014D0000BB900C000C044FF1BB9F2FC270F2795D1
:1014E000889400C0002C1BB9F3FC270F00C0002C0F
:1014F0000BB900C000C043FF1BB927958894F4FCCA
:10150000270F00C0002C1BB92795889400C0002C21
:101510000BB900C000C042FF1BB9F5FC270F27958F
:10152000889400C0002C1BB9F6FC270F00C0002CCB
:101530000BB900C000C041FF1BB927958894F7FC88
:10154000270F00C0002C1BB92795889400C0002CE1
:101550000BB900C000C040FF1BB9472FF110422F4C
:101560008C0D00C0002C1BB9119709F086CE20EE1F
:1015700031E0D2010E94381BDC01CB01F4E0B695CA
:10158000A79597958795FA95D1F730E020E0B901B6
:10159000EAE94E9E040C611D5E9E600D711D1124D2
:1015A000650D711D860F971FA11DB11D893EE3E0DA
:1015B0009E07A105B10508F434C0885E9340A109D7
:1015C000B10942E0B695A795979587954A95D1F7C9
:1015D00047E0849F080E211D949F200D311D11248A
:1015E000290F311D6091B40170E0860F971F820FA3
:1015F000931F40910002509101026091020270918C
:101600000302292F3327420F531F611D711D409381
:1016100000025093010260930202709303028093D0
:10162000B40178940E94EE01F301708B6787DF911B
:10163000CF911F910F91FF90EF90DF90CF90AF90DF
:101640009F908F907F906F905F904F900895579AE2
:1016500008950F931F93CF93DF93CDB7DEB76297B3
:101660000FB6F894DEBF0FBECDBF8C01F901DC01CF
:101670001C968C917A8369835C834B835E834D8354
:1016800090819D8791819E8792819F878130F1F41F
:10169000CE0101960E94960883E0888B1A8A198AE7
:1016A000D801ED91FC910484F585E02DBE016F5FBA
:1016B0007F4FC801099562960FB6F894DEBF0FBE42
:1016C000CDBFDF91CF911F910F9108951C861B868E
:1016D0001A86198618861F82DFCF0F931F93CF9328
:1016E000DF93CDB7DEB762970FB6F894DEBF0FBEBB
:1016F000CDBF8C01F901DC011C968C917A83698342
:101700005C834B835E834D8390819D8791819E870F
:1017100092819F878130E9F4CE0101960E9496085C
:10172000188A1A8A198AD801ED91FC910484F585EA
:10173000E02DBE016F5F7F4FC801099562960FB61D
:10174000F894DEBF0FBECDBFDF91CF911F910F91F7
:1017500008951C861B861A86198618861F82E0CF7C
:10176000CF92DF92EF92FF920F931F93CF93DF936D
:10177000CDB7DEB72C970FB6F894DEBF0FBECDBF46
:101780004F83588769877A878B879C87CF80D884D7
:10179000E984FA840B851C8587E09FE0909305011E
:1017A0008093040182E00E946601892B29F086E083
:1017B0000E946601892B39F468EC70E080E090E0CB
:1017C0000E941302EFCF86E00E946601892BB9F1D7
:1017D00082E00E946601892B69F488E1C816D10471
:1017E00038F58FEFC81AD80A60E971E080E090E020
:1017F0000E94130283E00E946601892B61F4C114E8
:10180000D104C9F081E0C81AD10860E971E080E034
:1018100090E00E941302D092AD01C092AC01F09210
:10182000AF01E092AE011093B1010093B001CBCFB4
:10183000D12CC12CD9CF97E1C92ED12CE6CF86E08F
:101840000E946601892B39F468EC70E080E090E03A
:101850000E941302F4CF86E00E946601892BB9F141
:1018600082E00E946601892B69F48CE3E816F1049A
:1018700038F58FEFE81AF80A60E971E080E090E04F
:101880000E94130283E00E946601892B61F4E11437
:10189000F104C9F081E0E81AF10860E971E080E044
:1018A00090E00E941302D092AD01C092AC01F09280
:1018B000AF01E092AE011093B1010093B001CBCF24
:1018C000F12CE12CD9CF8BE3E82EF12CE6CF86E08A
:1018D0000E946601892B39F468EC70E080E090E0AA
:1018E0000E941302F4CF86E00E946601892B99F1D1
:1018F00082E00E946601892B59F40C33110528F50A
:101900000F5F1F4F60E971E080E090E00E941302DA
:1019100083E00E946601892B59F401151105C1F07D
:101920000150110960E971E080E090E00E9413022B
:10193000D092AD01C092AC01F092AF01E092AE0145
:101940001093B1010093B001CECF10E000E0DACFE8
:101950000BE310E0E7CF86E00E946601892B39F4A3
:1019600068EC70E080E090E00E941302F4CF1092E7
:10197000C8031092C9031092CA03DA82C982FC829A
:10198000EB821E830D832C2D3A814E2D5C81602FBE
:101990007E8180E090E02C960FB6F894DEBF0FBEFB
:1019A000CDBFDF91CF911F910F91FF90EF90DF900E
:1019B000CF90089590E080E00895FC01858596859C
:1019C0000895CF93DF9300D000D000D0CDB7DEB71D
:1019D000AB011C821D821E82DC01ED91FC91019005
:1019E000F081E02D19821A821B829E012F5F3F4FEA
:1019F000BE016C5F7F4F099526960FB6F894DEBF47
:101A00000FBECDBFDF91CF910895FC01DB013C916A
:101A10002081230F08F42FEF208311963C9111971A
:101A20002181230F08F42FEF218312963C9122810C
:101A3000230F08F42FEF22830895EF92FF920F9364
:101A40001F93CF93DF9300D000D000D0CDB7DEB787
:101A50000091B2011091B3010115110571F41982C1
:101A60001A821B82CE0101960E94AE000F5F1F4FAB
:101A70001093B3010093B20104C0093483E0180746
:101A8000A8F3E090B201F090B301C70167E070E005
:101A90000E94D91A8B0184EAE81681E0F80668F5FD
:101AA00019828FEF8A8384E28B83BE016C5F7F4F44
:101AB000CE0101960E941D04C801880F991F800F56
:101AC000911FBE016C5F7F4F8E519D4F0E94050D8F
:101AD00088E4E81683E0F80618F086E080935A025E
:101AE00026960FB6F894DEBF0FBECDBFDF91CF9123
:101AF0001F910F91FF90EF90089580E689838FEFFB
:101B00008A8384E28B83BE016C5F7F4FCE01019696
:101B10000E941D040C531109CFCF0F931F93CF9335
:101B2000DF9300D000D000D0CDB7DEB78BEE0E949F
:101B30001E010E9445029B01AC0160E078E38EE04B
:101B400090E00E94BD1A0E94D9056CE370E09058A5
:101B50000E9414068C018091520289838FEF8A8340
:101B600080EC8B83BE016C5F7F4FCE0101960E949B
:101B70001D04C801880F991F800F911FBE016C5F63
:101B80007F4F8E519D4F0E94050D26960FB6F894FB
:101B9000DEBF0FBECDBFDF91CF911F910F91089592
:101BA0000F931F93CF93DF9300D000D000D0CDB719
:101BB000DEB785EF0E941E012091000130910101E6
:101BC00085E098E0289F8001299F100D389F100D17
:101BD0001124075E194C10930101009300010E942B
:101BE000FF0520E4829FC001112480915202890FD9
:101BF000898388EC8A838FEF8B83BE016C5F7F4F74
:101C0000CE0101960E941D049801ACE3B0E00E9451
:101C1000291BAA27BB279C01220F331F820F931F6A
:101C2000BE016C5F7F4F8E519D4F0E94050D269621
:101C30000FB6F894DEBF0FBECDBFDF91CF911F91DD
:101C40000F910895CF93DF9300D01F92CDB7DEB7E9
:101C50000E94B2050E94FF05803548F58FEF898309
:101C60008A838B83409100015091010185E098E0C7
:101C7000489F9001499F300D589F300D1124275ED9
:101C8000394C3093010120930001ACE3B0E00E9495
:101C9000291BAA27BB279C01220F331F820F931FEA
:101CA000BE016F5F7F4F8E519D4F0E94050D0F90BB
:101CB0000F900F90DF91CF910895DF92EF92FF92F6
:101CC0000F931F93CF93DF93CDB7DEB729970FB64E
:101CD000F894DEBF0FBECDBF4C835D836E837F83E0
:101CE0008887998719821A821B82CE0101960E94E9
:101CF000AE001BE819831A821B822E813F81C90125
:101D0000880F991F820F931FBE016F5F7F4F8E5107
:101D10009D4F0E94050D198280E88A831B822C81C9
:101D20003D818CE390E0821B930B9C01220F331FBB
:101D3000820F931FBE016F5F7F4F8E519D4F0E9498
:101D4000050D19831A821B8228853985C901880FE0
:101D5000991F820F931FBE016F5F7F4F8E519D4F62
:101D60000E94050D68EC73E082EE92E00E94050D82
:101D700068EC73E083E993E00E94050D10E000E059
:101D800077E0F72EE8E0EE2EFAE0DF2EC8018F5064
:101D90009D4F20915A0219822430D1F41A82DB829D
:101DA000BE016F5F7F4F0E94050D015F1F4F053A17
:101DB000110561F729960FB6F894DEBF0FBECDBFAF
:101DC000DF91CF911F910F91FF90EF90DF900895D9
:101DD000FA82EB82E5CF40915D0250915E02609104
:101DE0005F027091600280916102909162020C9496
:101DF0005D0E4091540250915502609156027091CF
:101E0000570280915802909159020C945D0E4091B6
:101E1000AC015091AD016091AE017091AF01809124
:101E2000B0019091B1010C945D0EFF920F931F933E
:101E3000CF93DF9300E711E0E8019CE0F92E0E94C8
:101E4000FF058F9D900111242991231B08F420E0A8
:101E5000FE013197208321E0CC3AD20781F7EAEAEC
:101E6000F1E0C3E0D0E08081229130E0820F932F37
:101E7000911D820F931FBE010E94ED1A628381E0C3
:101E8000E037F80781F70E94FF058A35B8F40E9411
:101E9000FF0597E0899FE0011124CD2FDD270E94E7
:101EA000FF05AFE58A9FC001112430EA390FC05900
:101EB000DE4F2881230F08F42FEF2883E2EEF2E0B3
:101EC0003FEB40E0D8015D918D01242F552329F08F
:101ED000539F212D112431112F5F822F880F880FDE
:101EE00027FD13C026FD15C0282F90E080E0208339
:101EF000818392833396B1E00C3A1B0719F7DF9187
:101F0000CF911F910F91FF900895982F8FEF2FEF92
:101F1000EECF90E0FCCF0F931F93CF93DF93C62FAC
:101F200091E09093B40298E69093D50210929E03AC
:101F300010929D03682F81EA93E00E94EB0381E0F9
:101F40000E94C100D82F811157C080919C0381113C
:101F5000FCCF81E080939C0380939B039FEF909341
:101F6000B3021092B2029C0F9093B1028093900240
:101F700080919002806D8093900280919A038130CD
:101F8000A9F510929A03809190028093BB008091F2
:101F9000BC0083FDF8CF85EC8093BC0080919C034E
:101FA0008130E1F38091B2029C2F8C1710F4909154
:101FB000B202E1E9F2E0A8E6B2E080E0891318C0DD
:101FC0001092A00380939F0308E812E081EA93E057
:101FD0000E94A403F80181938F01DF5FCD13F6CF38
:101FE0008C2FDF91CF911F910F91089585EED4CF63
:101FF00021912D938F5FE2CFC0E0F2CF0E944A1B68
:102000001F920F920FB60F9211242F933F938F932D
:102010009F93AF93BF938091000290910102A09192
:102020000202B09103023091FF0123E0230F2D370C
:1020300058F50196A11DB11D2093FF018093000268
:1020400090930102A0930202B093030280910402D4
:1020500090910502A0910602B09107020196A11D80
:10206000B11D8093040290930502A0930602B093E1
:102070000702BF91AF919F918F913F912F910F9048
:102080000FBE0F901F90189526E8230F0296A11DF2
:10209000B11DD2CF1F920F920FB60F9211242F9322
:1020A0003F934F935F936F937F938F939F93AF93E0
:1020B000BF93EF93FF938091B900887F803609F436
:1020C0004AC0F0F5883209F4A7C018F5803109F448
:1020D0009BC0B8F4882309F4F9C0883009F494C08F
:1020E000FF91EF91BF91AF919F918F917F916F91F0
:1020F0005F914F913F912F910F900FBE0F901F90C6
:102100001895883109F488C0803251F78093B30262
:1021100014C0803409F49DC040F48033B9F388338F
:10212000F9F68093B30285ECB0C0803509F485C020
:10213000883509F496C0883499F60E946303D0CF9D
:10214000883909F48CC038F5883729F050F488367E
:1021500011F0803729F683E080939C031092FE01F2
:1021600057C0883809F47BC0803919F0803809F0ED
:10217000B7CF8091FE01803208F071C0E091FE017E
:1021800081E08E0F8093FE018091BB00F0E0E2526F
:10219000FE4F80833DC0803B39F0E0F4803A09F483
:1021A00079C0883A09F09CCF84E080939C03109218
:1021B000DD011092DC01E0919803F09199030995FB
:1021C0008091DC0181110FC081E08093DC011092CD
:1021D000BC0109C0803C09F4A6CF883C09F4A3CF18
:1021E000883B09F07DCFE091DD0181E08E0F809387
:1021F000DD01F0E0E454FE4F80818093BB009091BC
:10220000DD018091DC0129C0809190028093BB00A8
:1022100085EC8093BC0064CF9091B2028091B102B2
:10222000981758F5E091B20281E08E0F8093B202C8
:10223000F0E0EF56FD4F8081E9CFE091B20281E0FE
:102240008E0F8093B2028091BB00F0E0EF56FD4FFD
:1022500080839091B2028091B1029817C8F285E80C
:10226000D8CFE091B20281E08E0F8093B2028091CC
:10227000BB00F0E0EF56FD4F808380919B038111FE
:102280005CCF81E080939A0384EA8093BC00109233
:102290009C0326CF85EC8093BC0010929C03809118
:1022A000FE01803230F4E091FE01F0E0E252FE4F98
:1022B00010826091FE0170E0E0919603F091970327
:1022C0008EED91E009951092FE010ACF1092B302B3
:1022D00034CF1F920F920FB60F9211242F933F937A
:1022E0004F935F936F937F938F939F93AF93BF931E
:1022F000EF93FF93809152028F5F809352028091FF
:1023000067028F5F8093670281E080936302809110
:102310000301882311F12091B1038091540290911F
:10232000550228171906C9F42091B203809156026C
:10233000909157022817190681F42091B3038091D8
:102340005802909159022817190639F41092B301D6
:102350001092B20187E080935C02E0910401F09159
:102360000501309719F009950E945102FF91EF91F4
:10237000BF91AF919F918F917F916F915F914F919D
:102380003F912F910F900FBE0F901F901895E1EA8B
:10239000F3E01382128288EE93E0A0E0B0E0848341
:1023A0009583A683B78381E691E091838083EDEAEC
:1023B000F3E0118210821282138214821582168237
:1023C0001782128611861486138684E185871092FF
:1023D000A00310929F0310929E0310929D031092EF
:1023E0009C0381E080939B0310929A0361E082E159
:1023F0000E948F0161E083E10E948F01E9EBF0E030
:1024000080818E7F808380818D7F808388E480932C
:10241000B80085E48093BC008CEA90E09093990327
:10242000809398038DEA90E09093970380939603AE
:10243000EBEBF3E08FEF8083128211821486138618
:102440008FEF9FEFDC0187839087A187B287E8EC4D
:10245000F3E01082118212820895CF93DF9300D0AF
:102460001F92CDB7DEB7789484B5826084BD84B501
:10247000816084BD85B5826085BD85B5816085BD7F
:1024800080916E00816080936E0010928100809137
:1024900081008260809381008091810081608093BF
:1024A0008100809180008160809380008091B100E4
:1024B00084608093B1008091B00081608093B0000F
:1024C00080917A00846080937A0080917A008260A3
:1024D00080937A0080917A00816080937A00809165
:1024E0007A00806880937A001092C10068EB7BE0EC
:1024F00080E090E00E94130286E090E09093550205
:10250000809354028EE190E090935702809356029C
:1025100081E090E0909359028093580262E082E05B
:102520000E94BD0162E086E00E94BD0162E083E09E
:102530000E94BD0162E082E10E94BD0162E083E190
:102540000E94BD0161E089E00E94BD0161E088E078
:102550000E94BD0161E082E00E948B0F813009F092
:1025600040C030918802832F80768036D9F43F7145
:10257000832F90E024E0959587952A95E1F7982F91
:10258000990F990F282F291B220F345F230F822FB9
:102590006AE00E94CD1A982F990F890F880F280F93
:1025A00020938802809188028F7B8093880281E04B
:1025B0008093B40288E68093D50210929E03109215
:1025C0009D0362E081EA93E00E94EB0341E050E06A
:1025D00068E872E081EA93E00E94BE0381E00E9415
:1025E000C10010922F0280E00E943F0780911B02E1
:1025F000811145C010920D0210920C028FEF809352
:102600001002809311028093120280931302809330
:1026100014028093150281E0809316021092180232
:102620001092170210920F0210920E028091DC029B
:102630009091DD02892B31F48AE092E09093DD02E3
:102640008093DC02E0910802F0910902309721F0BA
:102650008AE092E0958384838AE092E09093090275
:102660008093080210921A021092190281E491E0FC
:1026700090930B0280930A0281E080931B02579A89
:1026800082EE92E090930D0280930C028CE390E036
:1026900090931802809317028091BE039091BF031C
:1026A000A091C003B091C103843C29E09207A10529
:1026B000B10520F484EC99E0A0E0B0E08093BE0383
:1026C0009093BF03A093C003B093C1038FEF809397
:1026D000100280EB8093110280EF8093120280E859
:1026E0008093BB03F89410928000109285001092A2
:1026F0008400109281001092820084E39CE0909309
:102700008900809388008DE08093810082E080932F
:102710006F0078940DE1202E312C88EE482E83E056
:10272000582E612C712C96E9C92ED12C809167020C
:1027300090916602891B990B849740F08091670203
:102740008093660210926502109264028091630287
:10275000882309F4A2C067E080E00E948B0F2091DB
:102760008802822F90E0B4E095958795BA95E1F7BD
:10277000982F990F990F482F491B440F420F4093F0
:10278000B30320918902822F90E014E095958795FC
:102790001A95E1F7982F990F990F582F591B550F3C
:1027A000520F5093B20380918A0286FF89C0982FFE
:1027B0009F71292F30E0A4E035952795AA95E1F780
:1027C000322F330F330F231B220F290F2093B10316
:1027D00080728093B50320918B02822F90E034E0C9
:1027E000959587953A95E1F7982F990F990F891B41
:1027F000880F820F8093B40320918C02822F90E087
:1028000064E0959587956A95E1F7982F990F990F50
:10281000891B880F820F8093B00360918D02862FF1
:1028200090E074E0959587957A95E1F7982F990F48
:10283000990F891B880F860F8093AF0390918E02AA
:10284000292F30E0E4E035952795EA95E1F7822FCE
:10285000880F880F722F781B872F880F890F90E0C1
:102860009C012053384F67FD3FC03093AE03209347
:10287000AD038091B10390E090935E0280935D027E
:10288000852F90E09093600280935F0250E0509318
:1028900062024093610210926302E0915C02E930AF
:1028A00008F055C1F0E0E95AFB4E0C94231B9C1430
:1028B000A814CB14B3157B148B14E31544164B16D4
:1028C000282F2F73822F90E0F4E095958795FA9545
:1028D000E1F7982F990F990F891B880F820F80932A
:1028E000B1031092B50377CF8C5C974F9093AE03F2
:1028F0008093AD03BECF109205011092040119829E
:102900001A821B82CE0101960E94AE000E945102E3
:1029100085E080935C02E0915A02E73008F05BC5E5
:10292000F0E0EB56FB4E0C94231BC519DE19E019A1
:10293000E619C519E819EE198091670280935B02C8
:102940008BEE9EE0909305018093040181E0E1CF3E
:10295000809103018823C1F088EB8093C80386E847
:102960008093C9038BE08093CA03809167029091A2
:102970005B02891B990B8739910568F280915A0295
:102980008111C9CF84E0C5CF1092C8031092C9034A
:102990001092CA03EACF8AEF8093C8038093C903D9
:1029A00082ED8093CA038BEE9EE0909305018093A5
:1029B000040140915D0250915E0260915F0270914E
:1029C000600280916102909162020E94B00B20939C
:1029D0005D0230935E0240935F0250936002609309
:1029E0006102709362022093B1034093B20360933B
:1029F000B30361E082E00E948B0F8091880221E0A6
:102A000030E086FD02C022E030E0EAE8F2E086E055
:102A1000DF011D928A95E9F75091B3034AE0852FB3
:102A2000642F0E94CD1A982F880F890F880F850F69
:102A3000809388025091B203852F0E94CD1A982F5F
:102A4000880F890F880F850F809389025091B103F9
:102A50002130310509F07EC05D3030F05C5050937C
:102A6000B10381E08093B5032091B103822F6AE026
:102A70000E94CD1A982F880F890F880F820F80939C
:102A80008A029091B503992319F0806280938A029B
:102A900080918A02806480938A023091B4032AE094
:102AA000832F622F0E94CD1A982F880F890F880FCD
:102AB000830F80938B023091B003832F0E94CD1A35
:102AC000982F880F890F880F830F80938C02309185
:102AD000AF03832F0E94CD1A982F880F890F880F7C
:102AE000830F80938D024091AD035091AE039A0104
:102AF000205D37402536310528F0806880938D02AF
:102B000024563109822F6AE00E94CD1A982F880F2F
:102B1000890F880F820F80938E0281E08093B40228
:102B200088E68093D50210929E0310929D0360E088
:102B300081EA93E00E94EB0347E050E068E872E02E
:102B400081EA93E00E94BE0381E00E94C1001092DE
:102B50005C02E1CE852F0E94CD1A982F880F890F35
:102B6000880F850F98CF8BE68093C8038EE88093FB
:102B7000C90383E28093CA0389EF9EE09093050125
:102B8000809304018091030191E0892780930301E0
:102B90004091540250915502609156027091570233
:102BA00080915802909159020E94B00B20935402D8
:102BB0003093550240935602509357026093580247
:102BC00070935902C4CF1092050110920401E09154
:102BD0005302F0E0EE0FFF1FE15BFE4F0190F0812A
:102BE000E02D099568E270E080E090E00E94130219
:102BF0000E945102809152028F5F80935202809115
:102C00000201882309F487CE80914A02811113C002
:102C10000E944502A30192010E94011B30934702CA
:102C2000209346028AE090E0909349028093480204
:102C300081E080934A020E944502A30192010E9412
:102C4000011B8091460290914702281B390B80910D
:102C50004802909149022817390708F45CCE0E9477
:102C60004502A30192010E94011B30934702209369
:102C700046028091530290E0019667E070E00E9466
:102C8000D91A8093530247CE8DE19DE090930501C0
:102C90008093040140CE0E94450220914202162FEB
:102CA000121B09F452C06093420270934302809356
:102CB00044029093450201E026E040E452E061E4E2
:102CC00072E0812F0E947208F82E02E023E04EE3AA
:102CD00052E06FE372E0812F0E947208F82A04E04C
:102CE0002FEF4CE352E06DE372E0812F0E947208F7
:102CF000F82A08E02FEF4AE352E06BE372E0812FFD
:102D00000E947208F82A40E168E372E0812F0E9475
:102D10005A08F82A40E266E372E0812F0E945A08BE
:102D2000F82A40E464E372E0812F0E945A08F82AEE
:102D300040E062E372E0812F0E945A0840E060E3C5
:102D400072E0812F0E945A081F2D80912F0283303C
:102D5000A0F0893020F095EF980F923070F4209118
:102D6000320230913302232B09F01E7F2091300272
:102D700030913102232B09F01D7F912F917010FFAC
:102D800006C02AEF30E03093330220933202212F25
:102D9000227011FFDCC34AEF50E0509331024093A0
:102DA00030028D3008F086C2E82FF0E0E652F94E8E
:102DB0000C94231BE716D2175B18FD171C18361846
:102DC00059187C18CA18101915191D191D1999239D
:102DD00021F081E00E943F079ECD222311F082E086
:102DE000F9CF14FF98CD88E290E090933902809358
:102DF0003802109126021C3008F0D1C0E12FF0E01B
:102E0000EC5FF84E0C94231B1017101710171017B7
:102E10004F1760174F1760176F1795176F17951794
:102E200002EE802E02E0902EB12CA12C00E8E09062
:102E30002402F0902502C7018A0D9B1D8630A6E072
:102E40009A0710F0865096408983BFEFBA830B83B0
:102E5000B401CE0101960E941D0420E1A20EB11C16
:102E600033E0830E911C40ECA41643E0B406F9F65F
:102E7000C70149969093250280932402863096409C
:102E8000E0F07DEEE71A75E0F70AF0922502E09295
:102E90002402109223021F5F109326020EC080E0CE
:102EA0000E94C6066091230201E0060F00932302F0
:102EB00081E00E9445080C3370F70E9451022BCD2F
:102EC00080E00E94C6060091230201500093230275
:102ED000602F8FEF0E9445080111EFCFDCCF80E01B
:102EE0000E94C60680912302A9E3B3E0ECE3F3E07D
:102EF00090E02FEF891771F02C9311961C92119787
:102F000012961C9212971082218312829F5F139750
:102F10003396F0CF8F5F809323028E3170F21F5F64
:102F20001093260210922302C8CF80E00E94C606AA
:102F3000E09123024EE150E04E1B5109F0E00FEF0B
:102F40002F2F30E0241735071CF5C101821B930B8E
:102F5000BC01660F771F860F971FDC01AE51BD4F76
:102F60000C9311961C92119712961C92225E3F4F61
:102F7000C901880F991F280F391FD901AE51BD4FC4
:102F80001C9211960C93119712961C92FF5FD8CF4A
:102F9000EF5FE0932302EE3108F48FCFC0CF1092A1
:102FA00026028BCF992311F083E014CF15FD82C147
:102FB00014FFB1CCD0923902C0923802E0912D02B8
:102FC0008E2F90E020912E02FC01EE0FFF1FE80FE4
:102FD000F91FEE51FD4F222309F42CC18FEF80839E
:102FE00080E8818312820E94510281E090912E023A
:102FF000911180E080932E028ECC14FF8CCC0E9425
:103000009F068CE00E94C60660912D0281E00E941E
:1030100045080E94510280912D028F5F80932D02FE
:10302000ABE3B0E0A81BB10920912C022A171B06C4
:103030000CF471CC86E0CECE14FF6DCC0E949F06BE
:103040008CE00E94C60660912D028FEF0E94450819
:103050000E94510280912D02815080932D02909107
:103060002B02981708F457CC85E0B4CE91119CCF71
:1030700014FF51CC10912D02111115C080912A021C
:103080008F5F80932A028A3060F08CE00E943F07B5
:103090008CE00E94C60660912D028FEF0E944508C9
:1030A0000CCF88E0F3CF0E949F06115010932D02A1
:1030B000EFCF222311F084E08DCE14FF2CCC1091A1
:1030C0002D021B3399F4809129028F5F809329028E
:1030D0008A3050F08BE00E943F078CE00E94C606C9
:1030E00060912D0281E0DACF87E0F5CF0E949F0644
:1030F0001F5F10932D02F1CF992311F089E06ACE62
:1031000014FF09CC29EE30E03093390220933802C5
:1031100080E30E94C6068091290290E09C01215024
:103120003109220F331FA101421B530B0F979195B9
:1031300081959109880F991F60912802FA01EE0F7D
:10314000FF1F9C01220F331FE40FF51FEE51FD4FAF
:1031500060FD15C0108211821282820F931FFC0144
:10316000EE51FD4F1082118212820E945102809115
:1031700028028150809328028111CDCBBFCF4FEF21
:10318000408311821282820F931FFC01EE51FD4F8A
:103190004083E9CF222311F08AE01CCE14FFBBCB81
:1031A00049EE50E0509339024093380280E30E9488
:1031B000C606E0912A02F0E03E96AF01440F551F8B
:1031C000CA01019660912802FA01EE0FFF1F9C01CF
:1031D000220F331FE40FF51FEE51FD4F108260FDEB
:1031E00014C011821282820F931FFC01EE51FD4F19
:1031F0001082118212820E94510280912802815015
:1032000080932802811187CBC7CF4FEF4183128271
:10321000820F931FFC01EE51FD4F10824183EACFD4
:10322000812F817209F4C4CEBFCE812F827209F43E
:10323000BFCE41CF10821182D5CE1F7B10FDC9CDEC
:1032400011FDCDCD14FF67CBA5E5B0E0B0933902F9
:10325000A093380210E0F12C0FEF8C3021F41EE126
:1032600080E8F82E00E019821A821B82CE010196B6
:103270000E94AE00209127022431F0F420FF10C0FC
:10328000502F4F2DB3E01B9FF0011124EE51FD4F45
:103290008EE1508341831282815033968111F9CFA0
:1032A0000E945102809127028F5F809327028C3801
:1032B00008F431CB80E08ECD2233F0F4502F4F2D27
:1032C00060E02451330B812F90E00196FC01EE0F5A
:1032D000FF1FE80FF91FEE51FD4FCF0101968F013F
:1032E0000E5F1F4F62171306DCF65083DC014C9310
:1032F000D8011C926F5FF6CF203570F4812F90E0DB
:103300000196FC01EE0FFF1FE80FF91FEE51FD4F74
:103310000083F1821282C4CF2E36F0F4502F4F2D4D
:10332000A0E02055330B812F90E06A2F70E06217E8
:1033300073070CF0B5CFF101E61BF70BE80FF91F8F
:10334000BF01660F771FE60FF71FEE51FD4F508349
:1033500041831282AF5FE9CF2C3808F0A1CF2E56FF
:10336000502F4F2D3DEF3203F001112473E0179FD2
:10337000E00DF11D1124E75CFC4F50834183128264
:103380002F5F33972E31C9F78BCF60E088E00E9422
:103390008F0160E089E00E948F0182E00E94660157
:1033A000892B69F582E00E946601892BD1F468ECD3
:1033B00070E080E090E00E941302F4CF61E0E6CF7D
:1033C00060E088E00E948F0161E0E4CF61E0F9CF26
:1033D00084E080935C0210925A02DFCF61E088E0C3
:1033E000DACF80915C02873001F1883011F08630AD
:1033F000F9F4109265021092640210925C0210912E
:103400005C02183009F44DC086E00E946601892BE9
:1034100039F586E00E946601892B71F468EC70E052
:1034200080E090E00E941302F4CF10925A02E1CFA4
:1034300082E080935C02E3CF163031F0173009F15F
:1034400083E080935C020CC08091530290E001966F
:1034500067E070E00E94D91A809353021092020133
:1034600083E00E946601892BE1F483E00E946601FB
:10347000892B81F468EC70E080E090E00E941302F8
:10348000F4CF109265021092640210925A021092C8
:103490005C02E6CF80915C028530C1F050F481304F
:1034A000F9F080E090E0892B09F440C90E94000007
:1034B0003DC9863079F18730A1F7109265021092EC
:1034C000640210925A0210925C02EBCF10925C02DE
:1034D00080915A02882329F38F5F80935A02E1CFAB
:1034E00090915A029F5F90935A022091640230910A
:1034F00065022F5F3F4F30936502209364022A30AC
:10350000310578F210925A028093020186E080938E
:103510005C02C7CF809164029091650201969093FE
:103520006502809364020E9708F4BBCF10920501E8
:103530001092040119821A821B82CE0101960E9408
:10354000AE000E94510210925A0288E0E0CF8D3006
:1035500008F0B0CEE82FF0E0E055F54E0C94231BB8
:10356000E716D217D617FD171C1836185D187C18E9
:10357000CE18101915191D191D19DB018F939F9372
:103580000E943F1BBF91AF91A29F800D911DA39FF1
:10359000900DB29F900D11240895991B79E004C0FD
:1035A000991F961708F0961B881F7A95C9F7809582
:1035B0000895AA1BBB1B51E107C0AA1FBB1FA6177A
:1035C000B70710F0A61BB70B881F991F5A95A9F7CC
:1035D00080959095BC01CD01089597FB072E16F4B8
:1035E000009407D077FD09D00E94D91A07FC05D0B6
:1035F0003EF4909581959F4F0895709561957F4F0A
:103600000895A1E21A2EAA1BBB1BFD010DC0AA1F23
:10361000BB1FEE1FFF1FA217B307E407F50720F03B
:10362000A21BB30BE40BF50B661F771F881F991FB6
:103630001A9469F760957095809590959B01AC01FF
:10364000BD01CF010895EE0FFF1F0590F491E02D0D
:103650000994A29FB001B39FC001A39F700D811D6B
:103660001124911DB29F700D811D1124911D08958B
:103670000E94291BB7FF0895821B930B08950E9497
:10368000291BA59F900DB49F900DA49F800D911DA7
:103690001124089581E090E0F8940C944F1BF89465
:0236A000FFCF5A
:1036A200390501018D0D00003100F9183000FB30A1
:1036B2002C001C472600825A1F006D6A17004176B3
:1036C2000E00897D04003131295A1B750A00000061
:1036D20000FE0FFE0FFE0FE10CDD0CDA0C00000005
:1036E200006D0B290B270BE10CDD0C3A01D308B25C
:1036F20005220ED00D8D0D2906D004150F000000F5
:1037020000EB03BE031A049403B703A4039503005A
:107800000C94343C0C94513C0C94513C0C94513CE1
:107810000C94513C0C94513C0C94513C0C94513CB4
:107820000C94513C0C94513C0C94513C0C94513CA4
:107830000C94513C0C94513C0C94513C0C94513C94
:107840000C94513C0C94513C0C94513C0C94513C84
:107850000C94513C0C94513C0C94513C0C94513C74
:107860000C94513C0C94513C11241FBECFEFD8E036
:10787000DEBFCDBF11E0A0E0B1E0ECE9FFE702C060
:1078800005900D92A230B107D9F712E0A2E0B1E065
:1078900001C01D92AD30B107E1F70E942D3D0C945F
:1078A000CC3F0C94003C982F959595959595959582
:1078B000905D8F708A307CF0282F295A8091C0000B
:1078C00085FFFCCF9093C6008091C00085FFFCCF60
:1078D0002093C6000895282F205DF0CF982F809127
:1078E000C00085FFFCCF9093C6000895EF92FF92F1
:1078F0000F931F93EE24FF2487018091C00087FD22
:1079000017C00894E11CF11C011D111D81E4E8164B
:1079100082E4F8068FE0080780E0180770F3E09132
:107920000401F091050109958091C00087FFE9CF1E
:107930008091C6001F910F91FF90EF9008950E94D3
:10794000763C982F8091C00085FFFCCF9093C600B5
:1079500091362CF490330CF09053892F089597555D
:10796000892F08951F930E949F3C182F0E949F3CCF
:107970001295107F810F1F9108951F93182F882350
:1079800021F00E94763C1150E1F71F9108951F935A
:10799000182F0E94763C803249F0809103018F5F5E
:1079A000809303018530C1F01F9108958091C0003C
:1079B00085FFFCCF84E18093C6008091C00085FFE5
:1079C000FCCF1093C6008091C00085FFFCCF80E102
:1079D0008093C6001F910895E0910401F091050184
:1079E00009951F9108950E94763C803241F0809164
:1079F00003018F5F80930301853081F008958091AA
:107A0000C00085FFFCCF84E18093C6008091C00058
:107A100085FFFCCF80E18093C6000895E0910401CA
:107A2000F09105010995089540E951E08823A1F0FE
:107A30002D9A28EE33E0FA013197F1F721503040CA
:107A4000D1F72D9828EE33E0FA013197F1F7215064
:107A50003040D1F7815061F708953F924F925F9285
:107A60006F927F928F929F92AF92BF92CF92DF924E
:107A7000EF92FF920F931F93CF93DF93000080E16B
:107A80008093C4001092C50088E18093C10086E015
:107A90008093C2005098589A259A81E00E94143D24
:107AA00024E1F22E9EE1E92E85E9D82E0FE0C02ECA
:107AB00010E1B12EAA24A394B1E49B2EA6E58A2E50
:107AC000F2E57F2EE0E26E2E79E4572E63E5462E36
:107AD00050E5352E0E94763C8033B1F18133B9F107
:107AE000803409F46FC0813409F476C0823409F41B
:107AF00085C0853409F488C0803531F1823521F1A3
:107B0000813511F1853509F485C0863509F48DC0BC
:107B1000843609F496C0843709F403C1853709F423
:107B200072C1863709F466C0809103018F5F80932C
:107B30000301853079F6E0910401F0910501099582
:107B40000E94763C803351F60E94F33CC3CF0E94E2
:107B5000763C803249F78091C00085FFFCCFF092DF
:107B6000C6008091C00085FFFCCF9092C600809136
:107B7000C00085FFFCCF8092C6008091C00085FFC9
:107B8000FCCF7092C6008091C00085FFFCCF609250
:107B9000C6008091C00085FFFCCF5092C600809146
:107BA000C00085FFFCCF4092C6008091C00085FFD9
:107BB000FCCF3092C6008091C00085FFFCCFB09210
:107BC000C60088CF0E94763C863808F4BDCF0E945C
:107BD000763C0E94F33C7ECF0E94763C803809F4CC
:107BE0009CC0813809F40BC1823809F43CC1883942
:107BF00009F48FC080E00E94C73C6CCF84E10E94F2
:107C0000BD3C0E94F33C66CF85E00E94BD3C0E94D3
:107C1000F33C60CF0E94763C809306010E94763C44
:107C2000809307010E94F33C55CF0E94763C80333D
:107C300009F41DC183E00E94BD3C80E00E94C73C66
:107C400049CF0E94763C809309020E94763C809343
:107C5000080280910C028E7F80930C020E94763C79
:107C6000853409F415C18091080290910902892B8D
:107C700089F000E010E00E94763CF801E85FFE4FDA
:107C800080830F5F1F4F80910802909109020817AF
:107C9000190788F30E94763C803209F045CF809125
:107CA0000C0280FF01C16091060170910701660F0F
:107CB000771F7093070160930601A0910802B091AD
:107CC00009021097C9F0E8E0F1E09B01AD014E0F09
:107CD0005F1FF999FECF32BD21BD819180BDFA9A17
:107CE000F99A2F5F3F4FE417F50799F76A0F7B1F4B
:107CF00070930701609306018091C00085FFFCCF5F
:107D0000F092C6008091C00085FFFCCFB092C60003
:107D1000E1CE83E00E94C73CDDCE82E00E94C73CFA
:107D2000D9CE0E94763C809309020E94763C8093D3
:107D300008028091060190910701880F991F909386
:107D40000701809306010E94763C853409F4A6C0A1
:107D500080910C028E7F80930C020E94763C8032D0
:107D600009F0B8CE8091C00085FFFCCFF092C6002C
:107D7000609108027091090261157105B9F140E046
:107D800050E080910C02A82FA170B82FB27011C0E2
:107D9000BB2309F45CC0E0910601F0910701319624
:107DA000F0930701E09306014F5F5F4F46175707B7
:107DB000E8F4AA2369F3F999FECF209106013091E6
:107DC000070132BD21BDF89A90B58091C00085FFB2
:107DD000FCCF9093C6002F5F3F4F30930701209355
:107DE00006014F5F5F4F4617570718F38091C00099
:107DF00085FDE5CE8091C00085FFF8CFE0CE81E023
:107E00000E94C73C67CE0E94763C803209F08CCE3F
:107E10008091C00085FFFCCFF092C6008091C00029
:107E200085FFFCCFE092C6008091C00085FFFCCFAB
:107E3000D092C6008091C00085FFFCCFC092C600E2
:107E40008091C00085FFFCCFB092C60043CEE09188
:107E50000601F091070194918091C00085FFFCCF4D
:107E60009093C6009CCF80E10E94C73C33CE0E9415
:107E7000763C0E94763C182F0E94763C112309F430
:107E800083C0113009F484C08FE00E94C73C22CE29
:107E900080910C02816080930C02E5CE80910C02EF
:107EA000816080930C0259CF809107018823880F4D
:107EB000880B8A2180930B02809106019091070123
:107EC000880F991F90930701809306018091080203
:107ED00080FF09C080910802909109020196909359
:107EE000090280930802F894F999FECF1127E091D6
:107EF0000601F0910701C8E0D1E08091080290915D
:107F00000902103091F40091570001700130D9F34B
:107F100003E000935700E89500915700017001308D
:107F2000D9F301E100935700E89509901990009169
:107F3000570001700130D9F301E000935700E89534
:107F40001395103498F011270091570001700130FB
:107F5000D9F305E000935700E895009157000170B0
:107F60000130D9F301E100935700E895329602976A
:107F700009F0C7CF103011F00296E5CF112480919F
:107F8000C00085FFB9CEBCCE8EE10E94C73CA2CD19
:0C7F900085E90E94C73C9ECDF894FFCF0D
:027F9C00800063
:040000030000780081
:00000001FF
